:020000020000FC
:100000000EC018954FC018954BC0189518951895A7
:100010001895189538C0189518951895189500E0FA
:10002000702F01E0D02E0AEAE02E00E0F02EF0E082
:100030000FE50DBF02E00EBF9CD002E80ABD05E847
:1000400003BF0FE809BD00E002BF04E109BF01E002
:1000500000BF0BD057D010D00FD118D1F89405D0D5
:100060007DD00AD078948895F9CF02E008BB06E1EC
:1000700007BB0AE10DB9089500E00DB900E20BBF1E
:1000800009E005BB0895F89470FD07C074FF02C035
:100090007F7E2CD105D1777F01C028D17894189527
:1000A000E394189570FDBBCF73FD1895F89406B3D3
:1000B0000970033079F0013069F0083011F078945C
:1000C00018957860082F10E4010F007C8F73802B47
:1000D000789418957860082F10E4011B007C8F73CA
:1000E000802B78941895689A689A769BFCCF08952F
:1000F0000F9300EF0EB95FB9F6DF0EB94FB9F3DF1A
:100100000F9108955CE041E0C498F2DFF1DFF0DF89
:10011000EFDFC49A5BE047E0C498EADFE9DFE8DF9D
:10012000E7DFC49A51E040E0C498E2DFE1DFE0DFBE
:10013000DFDFC49A53955930B9F708952F93C498C7
:10014000AF93BF9324E04C91D3DF18964C912A953E
:10015000D9F7C49ABF91AF912F9108955F93A0E60C
:10016000B0E051E0EBDF119653955930D9F75F912C
:1001700008950FEF10E80093600010936100109352
:100180006200109363001093640010936500109355
:1001900066000093670010E0009368001093690008
:1001A00010936A0010936B0010936C0010936D0015
:1001B00010936E0000936F00009370001093710015
:1001C00010937200109373001093740010937500D5
:1001D000109376000093770011E00093780010935D
:1001E000790010937A0010937B0010937C00109399
:1001F0007D0010937E0000937F000895A0E6B0E09C
:100200000F2F087128E138E0201719F0231B1896EA
:10021000FBCF0F2F007E20E030E2201719F0230FD4
:100220001196FBCF0895AF93BF93E8DF0F2F0770B0
:1002300020E031E011E0201719F0230F110FFBCF60
:100240000C9101270C93BF91AF910895AF93BF9389
:100250007D7FD4DF0F2F077020E031E011E0201701
:1002600019F0230F110FFBCF0C91BF91AF91012318
:1002700009F408957260089582ECF5E6D4DFF093F6
:100280008000F4E6D0DFF09381000895FE2DF39511
:10029000DDDF072F0270D9F79F2FC5DFEE0C089521
:1002A0004F9340918000082F007C003039F00034DB
:1002B00041F0003C49F000E2400F08C000E2401B62
:1002C00005C001E0401B02C001E0400F03D021D077
:1002D0004F9108957E7FF42FB9DF71FF0895F913D0
:1002E00003C07460D3DF089571600895AF93BF9326
:1002F00020E0382F3F73A0E8B0E0FD912F933F93AB
:1003000092DF3F912F9123952313F7CFBF91AF91A8
:100310000895AF93BF93A0E8B0E0282F2F732A95DC
:10032000A20FBF1DCA2FDB2FFC9172FD04C02F93BB
:100330007ADF2F9106C08395A395BF1DFC93AC2F48
:10034000BD2F0A910C93AC2FBD2F2A95D1F7409366
:100350008000F42F7BDF71FF66DFBF91AF9172FFEA
:0A03600008957B7FC3DF70610895EC
:00000001FF
