:020000020000FC
:100000000EC0189553C018954FC01895189518959F
:100010001895189536C0189518951895189500E0FC
:10002000602F0AEAE02E00E0F02EF0E00FE50DBFB1
:1000300002E00EBFA2D002E80ABD05E803BF0FE848
:1000400009BD00E002BF04E109BF01E000BF0BD021
:100050005DD010D029D12CD1F89405D083D00AD00E
:1000600078948895F9CF02E008BB06E107BB0AE166
:100070000DB9089500E00DB900E20BBF09E005BB22
:100080000895F894677F60FD0CC065FD04C064FFAF
:1000900006C06F7E49D166FD02C0606403C017D1FF
:1000A00001C042D178941895E394189560FDB7CFBC
:1000B00063FD1895F89406B30970033079F00130A8
:1000C00069F0083011F0789418956860072F10E4F3
:1000D000010F007C7F73702B789418956860072F50
:1000E00010E4011B007C7F73702B78941895689A3C
:1000F000689A769BFCCF08950F9300EF0EB95FB915
:10010000F6DF0EB94FB9F3DF0F9108955CE041E0DF
:10011000C498F2DFF1DFF0DFEFDFC49A5BE047E085
:10012000C498EADFE9DFE8DFE7DFC49A51E040E0A6
:10013000C498E2DFE1DFE0DFDFDFC49A5395593096
:10014000B9F708952F93C498AF93BF9324E04C91CF
:10015000D3DF18964C912A95D9F7C49ABF91AF91E5
:100160002F9108955F93A0E6B0E051E0EBDF119688
:1001700053955930D9F75F9108950FEF10E8009328
:10018000600010936100109362001093630010935D
:10019000640010936500109366000093670010E000
:1001A000009368001093690010936A0010936B002D
:1001B00010936C0010936D0010936E0000936F000D
:1001C00000937000109371001093720010937300ED
:1001D00010937400109375001093760000937700CD
:1001E00011E0009378001093790010937A00109337
:1001F0007B0010937C0010937D0010937E00009391
:100200007F000895FCE4F093800025D0FA95A1E8E2
:10021000B0E021E0FD932F93BF93AF931CD0AF913B
:10022000BF912F91FA952A95A9F70895A0E6B0E01D
:100230000F2F087128E138E0201719F0231B1896BA
:10024000FBCF0F2F007E20E030E2201719F0230FA4
:100250001196FBCF0895AF93BF93E8DF0F2F077080
:1002600020E031E011E0201719F0230F110FFBCF30
:100270000C9101270C93BF91AF910895AF93BF9359
:100280006D7FD4DF0F2F077020E031E011E02017E1
:1002900019F0230F110FFBCF0C91BF91AF910123E8
:1002A00009F408956260089570EC82E0ABDF089570
:1002B000FE2D00EEF02700E2F5FFF00FF395DEDFF4
:1002C000062F0270D9F79F2FC6DFEE0C08954F93CB
:1002D00040918000072F007C003039F0003441F05D
:1002E000003C49F000E2400F08C000E2401B05C09E
:1002F00001E0401B02C001E0400F05D065FD11D0B8
:1003000025D04F910895F42FB9DF61FF0895F913B7
:1003100004C06F7D6460CCDF089565FD02C060623B
:1003200008956F7D61600895AF93BF9320E0382FEB
:10033000A0E8B0E0FD912F933F938DDF3F912F9187
:1003400023952313F7CFBF91AF910895AF93BF9338
:10035000A0E8B0E0282F2A95A20FBF1DCA2FDB2FDF
:10036000FC9162FD04C02F9376DF2F9106C0839528
:10037000A395BF1DFC93AC2FBD2F0A910C93AC2FFE
:10038000BD2F2A95D1F740938000F42F77DF61FFCE
:1003900062DFBF91AF9162FF08956B7FC5DF60613F
:0203A0000895BE
:00000001FF
